{
  "contractName": "HelloBlockchain",
  "abi": [
    {
      "inputs": [],
      "stateMutability": "nonpayable",
      "type": "constructor"
    },
    {
      "anonymous": false,
      "inputs": [
        {
          "indexed": true,
          "internalType": "address",
          "name": "account",
          "type": "address"
        },
        {
          "indexed": true,
          "internalType": "address",
          "name": "operator",
          "type": "address"
        },
        {
          "indexed": false,
          "internalType": "bool",
          "name": "approved",
          "type": "bool"
        }
      ],
      "name": "ApprovalForAll",
      "type": "event"
    },
    {
      "anonymous": false,
      "inputs": [
        {
          "indexed": true,
          "internalType": "address",
          "name": "previousOwner",
          "type": "address"
        },
        {
          "indexed": true,
          "internalType": "address",
          "name": "newOwner",
          "type": "address"
        }
      ],
      "name": "OwnershipTransferred",
      "type": "event"
    },
    {
      "anonymous": false,
      "inputs": [
        {
          "indexed": true,
          "internalType": "address",
          "name": "operator",
          "type": "address"
        },
        {
          "indexed": true,
          "internalType": "address",
          "name": "from",
          "type": "address"
        },
        {
          "indexed": true,
          "internalType": "address",
          "name": "to",
          "type": "address"
        },
        {
          "indexed": false,
          "internalType": "uint256[]",
          "name": "ids",
          "type": "uint256[]"
        },
        {
          "indexed": false,
          "internalType": "uint256[]",
          "name": "values",
          "type": "uint256[]"
        }
      ],
      "name": "TransferBatch",
      "type": "event"
    },
    {
      "anonymous": false,
      "inputs": [
        {
          "indexed": true,
          "internalType": "address",
          "name": "operator",
          "type": "address"
        },
        {
          "indexed": true,
          "internalType": "address",
          "name": "from",
          "type": "address"
        },
        {
          "indexed": true,
          "internalType": "address",
          "name": "to",
          "type": "address"
        },
        {
          "indexed": false,
          "internalType": "uint256",
          "name": "id",
          "type": "uint256"
        },
        {
          "indexed": false,
          "internalType": "uint256",
          "name": "value",
          "type": "uint256"
        }
      ],
      "name": "TransferSingle",
      "type": "event"
    },
    {
      "anonymous": false,
      "inputs": [
        {
          "indexed": false,
          "internalType": "string",
          "name": "value",
          "type": "string"
        },
        {
          "indexed": true,
          "internalType": "uint256",
          "name": "id",
          "type": "uint256"
        }
      ],
      "name": "URI",
      "type": "event"
    },
    {
      "inputs": [
        {
          "internalType": "address",
          "name": "account",
          "type": "address"
        },
        {
          "internalType": "uint256",
          "name": "id",
          "type": "uint256"
        }
      ],
      "name": "balanceOf",
      "outputs": [
        {
          "internalType": "uint256",
          "name": "",
          "type": "uint256"
        }
      ],
      "stateMutability": "view",
      "type": "function"
    },
    {
      "inputs": [
        {
          "internalType": "address[]",
          "name": "accounts",
          "type": "address[]"
        },
        {
          "internalType": "uint256[]",
          "name": "ids",
          "type": "uint256[]"
        }
      ],
      "name": "balanceOfBatch",
      "outputs": [
        {
          "internalType": "uint256[]",
          "name": "",
          "type": "uint256[]"
        }
      ],
      "stateMutability": "view",
      "type": "function"
    },
    {
      "inputs": [
        {
          "internalType": "address",
          "name": "account",
          "type": "address"
        },
        {
          "internalType": "address",
          "name": "operator",
          "type": "address"
        }
      ],
      "name": "isApprovedForAll",
      "outputs": [
        {
          "internalType": "bool",
          "name": "",
          "type": "bool"
        }
      ],
      "stateMutability": "view",
      "type": "function"
    },
    {
      "inputs": [],
      "name": "owner",
      "outputs": [
        {
          "internalType": "address",
          "name": "",
          "type": "address"
        }
      ],
      "stateMutability": "view",
      "type": "function"
    },
    {
      "inputs": [],
      "name": "renounceOwnership",
      "outputs": [],
      "stateMutability": "nonpayable",
      "type": "function"
    },
    {
      "inputs": [
        {
          "internalType": "address",
          "name": "from",
          "type": "address"
        },
        {
          "internalType": "address",
          "name": "to",
          "type": "address"
        },
        {
          "internalType": "uint256[]",
          "name": "ids",
          "type": "uint256[]"
        },
        {
          "internalType": "uint256[]",
          "name": "amounts",
          "type": "uint256[]"
        },
        {
          "internalType": "bytes",
          "name": "data",
          "type": "bytes"
        }
      ],
      "name": "safeBatchTransferFrom",
      "outputs": [],
      "stateMutability": "nonpayable",
      "type": "function"
    },
    {
      "inputs": [
        {
          "internalType": "address",
          "name": "from",
          "type": "address"
        },
        {
          "internalType": "address",
          "name": "to",
          "type": "address"
        },
        {
          "internalType": "uint256",
          "name": "id",
          "type": "uint256"
        },
        {
          "internalType": "uint256",
          "name": "amount",
          "type": "uint256"
        },
        {
          "internalType": "bytes",
          "name": "data",
          "type": "bytes"
        }
      ],
      "name": "safeTransferFrom",
      "outputs": [],
      "stateMutability": "nonpayable",
      "type": "function"
    },
    {
      "inputs": [
        {
          "internalType": "address",
          "name": "operator",
          "type": "address"
        },
        {
          "internalType": "bool",
          "name": "approved",
          "type": "bool"
        }
      ],
      "name": "setApprovalForAll",
      "outputs": [],
      "stateMutability": "nonpayable",
      "type": "function"
    },
    {
      "inputs": [
        {
          "internalType": "bytes4",
          "name": "interfaceId",
          "type": "bytes4"
        }
      ],
      "name": "supportsInterface",
      "outputs": [
        {
          "internalType": "bool",
          "name": "",
          "type": "bool"
        }
      ],
      "stateMutability": "view",
      "type": "function"
    },
    {
      "inputs": [
        {
          "internalType": "address",
          "name": "newOwner",
          "type": "address"
        }
      ],
      "name": "transferOwnership",
      "outputs": [],
      "stateMutability": "nonpayable",
      "type": "function"
    },
    {
      "inputs": [
        {
          "internalType": "uint256",
          "name": "",
          "type": "uint256"
        }
      ],
      "name": "uri",
      "outputs": [
        {
          "internalType": "string",
          "name": "",
          "type": "string"
        }
      ],
      "stateMutability": "view",
      "type": "function"
    },
    {
      "inputs": [
        {
          "internalType": "address",
          "name": "_to",
          "type": "address"
        },
        {
          "internalType": "uint256",
          "name": "id",
          "type": "uint256"
        }
      ],
      "name": "transferNFT",
      "outputs": [],
      "stateMutability": "nonpayable",
      "type": "function"
    },
    {
      "inputs": [
        {
          "internalType": "uint256",
          "name": "id",
          "type": "uint256"
        }
      ],
      "name": "getOwner",
      "outputs": [
        {
          "internalType": "address",
          "name": "",
          "type": "address"
        }
      ],
      "stateMutability": "view",
      "type": "function"
    },
    {
      "inputs": [
        {
          "internalType": "uint256",
          "name": "id",
          "type": "uint256"
        },
        {
          "internalType": "string",
          "name": "name",
          "type": "string"
        },
        {
          "internalType": "string",
          "name": "description",
          "type": "string"
        },
        {
          "internalType": "string",
          "name": "uri",
          "type": "string"
        }
      ],
      "name": "createNFT",
      "outputs": [],
      "stateMutability": "nonpayable",
      "type": "function"
    },
    {
      "inputs": [
        {
          "internalType": "uint256",
          "name": "id",
          "type": "uint256"
        }
      ],
      "name": "getName",
      "outputs": [
        {
          "internalType": "string",
          "name": "",
          "type": "string"
        }
      ],
      "stateMutability": "view",
      "type": "function"
    },
    {
      "inputs": [
        {
          "internalType": "uint256",
          "name": "id",
          "type": "uint256"
        }
      ],
      "name": "getDescription",
      "outputs": [
        {
          "internalType": "string",
          "name": "",
          "type": "string"
        }
      ],
      "stateMutability": "view",
      "type": "function"
    },
    {
      "inputs": [
        {
          "internalType": "address",
          "name": "to",
          "type": "address"
        },
        {
          "internalType": "uint256",
          "name": "id",
          "type": "uint256"
        },
        {
          "internalType": "uint256",
          "name": "amount",
          "type": "uint256"
        }
      ],
      "name": "mint",
      "outputs": [],
      "stateMutability": "nonpayable",
      "type": "function"
    },
    {
      "inputs": [
        {
          "internalType": "address",
          "name": "from",
          "type": "address"
        },
        {
          "internalType": "uint256",
          "name": "id",
          "type": "uint256"
        },
        {
          "internalType": "uint256",
          "name": "amount",
          "type": "uint256"
        }
      ],
      "name": "burn",
      "outputs": [],
      "stateMutability": "nonpayable",
      "type": "function"
    }
  ],
  "bytecode": "0x60806040523480156200001157600080fd5b506040518060200160405280600081525062000033816200005a60201b60201c565b5062000054620000486200007660201b60201c565b6200007e60201b60201c565b62000258565b80600290805190602001906200007292919062000144565b5050565b600033905090565b6000600360009054906101000a900473ffffffffffffffffffffffffffffffffffffffff16905081600360006101000a81548173ffffffffffffffffffffffffffffffffffffffff021916908373ffffffffffffffffffffffffffffffffffffffff1602179055508173ffffffffffffffffffffffffffffffffffffffff168173ffffffffffffffffffffffffffffffffffffffff167f8be0079c531659141344cd1fd0a4f28419497f9722a3daafe3b4186f6b6457e060405160405180910390a35050565b828054620001529062000223565b90600052602060002090601f016020900481019282620001765760008555620001c2565b82601f106200019157805160ff1916838001178555620001c2565b82800160010185558215620001c2579182015b82811115620001c1578251825591602001919060010190620001a4565b5b509050620001d19190620001d5565b5090565b5b80821115620001f0576000816000905550600101620001d6565b5090565b7f4e487b7100000000000000000000000000000000000000000000000000000000600052602260045260246000fd5b600060028204905060018216806200023c57607f821691505b602082108103620002525762000251620001f4565b5b50919050565b6137be80620002686000396000f3fe608060405234801561001057600080fd5b50600436106101155760003560e01c8063715018a6116100a2578063c41a360a11610071578063c41a360a146102ee578063e985e9c51461031e578063f242432a1461034e578063f2fde38b1461036a578063f5298aca1461038657610115565b8063715018a61461028e5780638da5cb5b1461029857806394ab67fe146102b6578063a22cb465146102d257610115565b8063156e29f6116100e9578063156e29f6146101c65780632eb2c2d6146101e25780634925ec55146101fe5780634e1273f41461022e5780636b8ff5741461025e57610115565b8062fdd58e1461011a57806301ffc9a71461014a5780630e89341c1461017a5780630fd48884146101aa575b600080fd5b610134600480360381019061012f91906120a3565b6103a2565b60405161014191906120f2565b60405180910390f35b610164600480360381019061015f9190612165565b61046a565b60405161017191906121ad565b60405180910390f35b610194600480360381019061018f91906121c8565b61054c565b6040516101a1919061228e565b60405180910390f35b6101c460048036038101906101bf91906123e5565b6105e0565b005b6101e060048036038101906101db91906124a0565b6106df565b005b6101fc60048036038101906101f7919061265c565b610707565b005b610218600480360381019061021391906121c8565b6107a8565b604051610225919061228e565b60405180910390f35b610248600480360381019061024391906127ee565b61084d565b6040516102559190612924565b60405180910390f35b610278600480360381019061027391906121c8565b610966565b604051610285919061228e565b60405180910390f35b610296610a0b565b005b6102a0610a1f565b6040516102ad9190612955565b60405180910390f35b6102d060048036038101906102cb91906120a3565b610a49565b005b6102ec60048036038101906102e7919061299c565b610b40565b005b610308600480360381019061030391906121c8565b610b56565b6040516103159190612955565b60405180910390f35b610338600480360381019061033391906129dc565b610b93565b60405161034591906121ad565b60405180910390f35b61036860048036038101906103639190612a1c565b610c27565b005b610384600480360381019061037f9190612ab3565b610cc8565b005b6103a0600480360381019061039b91906124a0565b610d4b565b005b60008073ffffffffffffffffffffffffffffffffffffffff168373ffffffffffffffffffffffffffffffffffffffff1603610412576040517f08c379a000000000000000000000000000000000000000000000000000000000815260040161040990612b52565b60405180910390fd5b60008083815260200190815260200160002060008473ffffffffffffffffffffffffffffffffffffffff1673ffffffffffffffffffffffffffffffffffffffff16815260200190815260200160002054905092915050565b60007fd9b67a26000000000000000000000000000000000000000000000000000000007bffffffffffffffffffffffffffffffffffffffffffffffffffffffff1916827bffffffffffffffffffffffffffffffffffffffffffffffffffffffff1916148061053557507f0e89341c000000000000000000000000000000000000000000000000000000007bffffffffffffffffffffffffffffffffffffffffffffffffffffffff1916827bffffffffffffffffffffffffffffffffffffffffffffffffffffffff1916145b80610545575061054482610dda565b5b9050919050565b60606002805461055b90612ba1565b80601f016020809104026020016040519081016040528092919081815260200182805461058790612ba1565b80156105d45780601f106105a9576101008083540402835291602001916105d4565b820191906000526020600020905b8154815290600101906020018083116105b757829003601f168201915b50505050509050919050565b6105e8610e44565b600484908060018154018082558091505060019003906000526020600020016000909190919091505582600760008681526020019081526020016000209080519060200190610638929190611f58565b5081600860008681526020019081526020016000209080519060200190610660929190611f58565b50336005600086815260200190815260200160002060006101000a81548173ffffffffffffffffffffffffffffffffffffffff021916908373ffffffffffffffffffffffffffffffffffffffff1602179055506106cf3385600160405180602001604052806000815250610ec2565b6106d98482611072565b50505050565b6106e7610e44565b61070283838360405180602001604052806000815250610ec2565b505050565b61070f6110a7565b73ffffffffffffffffffffffffffffffffffffffff168573ffffffffffffffffffffffffffffffffffffffff16148061075557506107548561074f6110a7565b610b93565b5b610794576040517f08c379a000000000000000000000000000000000000000000000000000000000815260040161078b90612c44565b60405180910390fd5b6107a185858585856110af565b5050505050565b60606008600083815260200190815260200160002080546107c890612ba1565b80601f01602080910402602001604051908101604052809291908181526020018280546107f490612ba1565b80156108415780601f1061081657610100808354040283529160200191610841565b820191906000526020600020905b81548152906001019060200180831161082457829003601f168201915b50505050509050919050565b60608151835114610893576040517f08c379a000000000000000000000000000000000000000000000000000000000815260040161088a90612cd6565b60405180910390fd5b6000835167ffffffffffffffff8111156108b0576108af6122ba565b5b6040519080825280602002602001820160405280156108de5781602001602082028036833780820191505090505b50905060005b845181101561095b5761092b85828151811061090357610902612cf6565b5b602002602001015185838151811061091e5761091d612cf6565b5b60200260200101516103a2565b82828151811061093e5761093d612cf6565b5b6020026020010181815250508061095490612d54565b90506108e4565b508091505092915050565b606060076000838152602001908152602001600020805461098690612ba1565b80601f01602080910402602001604051908101604052809291908181526020018280546109b290612ba1565b80156109ff5780601f106109d4576101008083540402835291602001916109ff565b820191906000526020600020905b8154815290600101906020018083116109e257829003601f168201915b50505050509050919050565b610a13610e44565b610a1d60006113d0565b565b6000600360009054906101000a900473ffffffffffffffffffffffffffffffffffffffff16905090565b6005600082815260200190815260200160002060009054906101000a900473ffffffffffffffffffffffffffffffffffffffff1673ffffffffffffffffffffffffffffffffffffffff163373ffffffffffffffffffffffffffffffffffffffff1614610aea576040517f08c379a0000000000000000000000000000000000000000000000000000000008152600401610ae190612e0e565b60405180910390fd5b816005600083815260200190815260200160002060006101000a81548173ffffffffffffffffffffffffffffffffffffffff021916908373ffffffffffffffffffffffffffffffffffffffff1602179055505050565b610b52610b4b6110a7565b8383611496565b5050565b60006005600083815260200190815260200160002060009054906101000a900473ffffffffffffffffffffffffffffffffffffffff169050919050565b6000600160008473ffffffffffffffffffffffffffffffffffffffff1673ffffffffffffffffffffffffffffffffffffffff16815260200190815260200160002060008373ffffffffffffffffffffffffffffffffffffffff1673ffffffffffffffffffffffffffffffffffffffff16815260200190815260200160002060009054906101000a900460ff16905092915050565b610c2f6110a7565b73ffffffffffffffffffffffffffffffffffffffff168573ffffffffffffffffffffffffffffffffffffffff161480610c755750610c7485610c6f6110a7565b610b93565b5b610cb4576040517f08c379a0000000000000000000000000000000000000000000000000000000008152600401610cab90612c44565b60405180910390fd5b610cc18585858585611602565b5050505050565b610cd0610e44565b600073ffffffffffffffffffffffffffffffffffffffff168173ffffffffffffffffffffffffffffffffffffffff1603610d3f576040517f08c379a0000000000000000000000000000000000000000000000000000000008152600401610d3690612ea0565b60405180910390fd5b610d48816113d0565b50565b3373ffffffffffffffffffffffffffffffffffffffff168373ffffffffffffffffffffffffffffffffffffffff161480610d8b5750610d8a8333610b93565b5b610dca576040517f08c379a0000000000000000000000000000000000000000000000000000000008152600401610dc190612f0c565b60405180910390fd5b610dd583838361189d565b505050565b60007f01ffc9a7000000000000000000000000000000000000000000000000000000007bffffffffffffffffffffffffffffffffffffffffffffffffffffffff1916827bffffffffffffffffffffffffffffffffffffffffffffffffffffffff1916149050919050565b610e4c6110a7565b73ffffffffffffffffffffffffffffffffffffffff16610e6a610a1f565b73ffffffffffffffffffffffffffffffffffffffff1614610ec0576040517f08c379a0000000000000000000000000000000000000000000000000000000008152600401610eb790612f78565b60405180910390fd5b565b600073ffffffffffffffffffffffffffffffffffffffff168473ffffffffffffffffffffffffffffffffffffffff1603610f31576040517f08c379a0000000000000000000000000000000000000000000000000000000008152600401610f289061300a565b60405180910390fd5b6000610f3b6110a7565b90506000610f4885611ae3565b90506000610f5585611ae3565b9050610f6683600089858589611b5d565b8460008088815260200190815260200160002060008973ffffffffffffffffffffffffffffffffffffffff1673ffffffffffffffffffffffffffffffffffffffff1681526020019081526020016000206000828254610fc5919061302a565b925050819055508673ffffffffffffffffffffffffffffffffffffffff16600073ffffffffffffffffffffffffffffffffffffffff168473ffffffffffffffffffffffffffffffffffffffff167fc3d58168c5ae7397731d063d5bbf3d657854427343f4c083240f7aacaa2d0f628989604051611043929190613080565b60405180910390a461105a83600089858589611b65565b61106983600089898989611b6d565b50505050505050565b80600660008481526020019081526020016000209080519060200190611099929190611f58565b506110a381611d44565b5050565b600033905090565b81518351146110f3576040517f08c379a00000000000000000000000000000000000000000000000000000000081526004016110ea9061311b565b60405180910390fd5b600073ffffffffffffffffffffffffffffffffffffffff168473ffffffffffffffffffffffffffffffffffffffff1603611162576040517f08c379a0000000000000000000000000000000000000000000000000000000008152600401611159906131ad565b60405180910390fd5b600061116c6110a7565b905061117c818787878787611b5d565b60005b845181101561132d57600085828151811061119d5761119c612cf6565b5b6020026020010151905060008583815181106111bc576111bb612cf6565b5b60200260200101519050600080600084815260200190815260200160002060008b73ffffffffffffffffffffffffffffffffffffffff1673ffffffffffffffffffffffffffffffffffffffff1681526020019081526020016000205490508181101561125d576040517f08c379a00000000000000000000000000000000000000000000000000000000081526004016112549061323f565b60405180910390fd5b81810360008085815260200190815260200160002060008c73ffffffffffffffffffffffffffffffffffffffff1673ffffffffffffffffffffffffffffffffffffffff168152602001908152602001600020819055508160008085815260200190815260200160002060008b73ffffffffffffffffffffffffffffffffffffffff1673ffffffffffffffffffffffffffffffffffffffff1681526020019081526020016000206000828254611312919061302a565b925050819055505050508061132690612d54565b905061117f565b508473ffffffffffffffffffffffffffffffffffffffff168673ffffffffffffffffffffffffffffffffffffffff168273ffffffffffffffffffffffffffffffffffffffff167f4a39dc06d4c0dbc64b70af90fd698a233a518aa5d07e595d983b8c0526c8f7fb87876040516113a492919061325f565b60405180910390a46113ba818787878787611b65565b6113c8818787878787611d5e565b505050505050565b6000600360009054906101000a900473ffffffffffffffffffffffffffffffffffffffff16905081600360006101000a81548173ffffffffffffffffffffffffffffffffffffffff021916908373ffffffffffffffffffffffffffffffffffffffff1602179055508173ffffffffffffffffffffffffffffffffffffffff168173ffffffffffffffffffffffffffffffffffffffff167f8be0079c531659141344cd1fd0a4f28419497f9722a3daafe3b4186f6b6457e060405160405180910390a35050565b8173ffffffffffffffffffffffffffffffffffffffff168373ffffffffffffffffffffffffffffffffffffffff1603611504576040517f08c379a00000000000000000000000000000000000000000000000000000000081526004016114fb90613308565b60405180910390fd5b80600160008573ffffffffffffffffffffffffffffffffffffffff1673ffffffffffffffffffffffffffffffffffffffff16815260200190815260200160002060008473ffffffffffffffffffffffffffffffffffffffff1673ffffffffffffffffffffffffffffffffffffffff16815260200190815260200160002060006101000a81548160ff0219169083151502179055508173ffffffffffffffffffffffffffffffffffffffff168373ffffffffffffffffffffffffffffffffffffffff167f17307eab39ab6107e8899845ad3d59bd9653f200f220920489ca2b5937696c31836040516115f591906121ad565b60405180910390a3505050565b600073ffffffffffffffffffffffffffffffffffffffff168473ffffffffffffffffffffffffffffffffffffffff1603611671576040517f08c379a0000000000000000000000000000000000000000000000000000000008152600401611668906131ad565b60405180910390fd5b600061167b6110a7565b9050600061168885611ae3565b9050600061169585611ae3565b90506116a5838989858589611b5d565b600080600088815260200190815260200160002060008a73ffffffffffffffffffffffffffffffffffffffff1673ffffffffffffffffffffffffffffffffffffffff1681526020019081526020016000205490508581101561173c576040517f08c379a00000000000000000000000000000000000000000000000000000000081526004016117339061323f565b60405180910390fd5b85810360008089815260200190815260200160002060008b73ffffffffffffffffffffffffffffffffffffffff1673ffffffffffffffffffffffffffffffffffffffff168152602001908152602001600020819055508560008089815260200190815260200160002060008a73ffffffffffffffffffffffffffffffffffffffff1673ffffffffffffffffffffffffffffffffffffffff16815260200190815260200160002060008282546117f1919061302a565b925050819055508773ffffffffffffffffffffffffffffffffffffffff168973ffffffffffffffffffffffffffffffffffffffff168573ffffffffffffffffffffffffffffffffffffffff167fc3d58168c5ae7397731d063d5bbf3d657854427343f4c083240f7aacaa2d0f628a8a60405161186e929190613080565b60405180910390a4611884848a8a86868a611b65565b611892848a8a8a8a8a611b6d565b505050505050505050565b600073ffffffffffffffffffffffffffffffffffffffff168373ffffffffffffffffffffffffffffffffffffffff160361190c576040517f08c379a00000000000000000000000000000000000000000000000000000000081526004016119039061339a565b60405180910390fd5b60006119166110a7565b9050600061192384611ae3565b9050600061193084611ae3565b905061195083876000858560405180602001604052806000815250611b5d565b600080600087815260200190815260200160002060008873ffffffffffffffffffffffffffffffffffffffff1673ffffffffffffffffffffffffffffffffffffffff168152602001908152602001600020549050848110156119e7576040517f08c379a00000000000000000000000000000000000000000000000000000000081526004016119de9061342c565b60405180910390fd5b84810360008088815260200190815260200160002060008973ffffffffffffffffffffffffffffffffffffffff1673ffffffffffffffffffffffffffffffffffffffff16815260200190815260200160002081905550600073ffffffffffffffffffffffffffffffffffffffff168773ffffffffffffffffffffffffffffffffffffffff168573ffffffffffffffffffffffffffffffffffffffff167fc3d58168c5ae7397731d063d5bbf3d657854427343f4c083240f7aacaa2d0f628989604051611ab4929190613080565b60405180910390a4611ada84886000868660405180602001604052806000815250611b65565b50505050505050565b60606000600167ffffffffffffffff811115611b0257611b016122ba565b5b604051908082528060200260200182016040528015611b305781602001602082028036833780820191505090505b5090508281600081518110611b4857611b47612cf6565b5b60200260200101818152505080915050919050565b505050505050565b505050505050565b611b8c8473ffffffffffffffffffffffffffffffffffffffff16611f35565b15611d3c578373ffffffffffffffffffffffffffffffffffffffff1663f23a6e6187878686866040518663ffffffff1660e01b8152600401611bd29594939291906134a1565b6020604051808303816000875af1925050508015611c0e57506040513d601f19601f82011682018060405250810190611c0b9190613510565b60015b611cb357611c1a61354a565b806308c379a003611c765750611c2e61356c565b80611c395750611c78565b806040517f08c379a0000000000000000000000000000000000000000000000000000000008152600401611c6d919061228e565b60405180910390fd5b505b6040517f08c379a0000000000000000000000000000000000000000000000000000000008152600401611caa9061366e565b60405180910390fd5b63f23a6e6160e01b7bffffffffffffffffffffffffffffffffffffffffffffffffffffffff1916817bffffffffffffffffffffffffffffffffffffffffffffffffffffffff191614611d3a576040517f08c379a0000000000000000000000000000000000000000000000000000000008152600401611d3190613700565b60405180910390fd5b505b505050505050565b8060029080519060200190611d5a929190611f58565b5050565b611d7d8473ffffffffffffffffffffffffffffffffffffffff16611f35565b15611f2d578373ffffffffffffffffffffffffffffffffffffffff1663bc197c8187878686866040518663ffffffff1660e01b8152600401611dc3959493929190613720565b6020604051808303816000875af1925050508015611dff57506040513d601f19601f82011682018060405250810190611dfc9190613510565b60015b611ea457611e0b61354a565b806308c379a003611e675750611e1f61356c565b80611e2a5750611e69565b806040517f08c379a0000000000000000000000000000000000000000000000000000000008152600401611e5e919061228e565b60405180910390fd5b505b6040517f08c379a0000000000000000000000000000000000000000000000000000000008152600401611e9b9061366e565b60405180910390fd5b63bc197c8160e01b7bffffffffffffffffffffffffffffffffffffffffffffffffffffffff1916817bffffffffffffffffffffffffffffffffffffffffffffffffffffffff191614611f2b576040517f08c379a0000000000000000000000000000000000000000000000000000000008152600401611f2290613700565b60405180910390fd5b505b505050505050565b6000808273ffffffffffffffffffffffffffffffffffffffff163b119050919050565b828054611f6490612ba1565b90600052602060002090601f016020900481019282611f865760008555611fcd565b82601f10611f9f57805160ff1916838001178555611fcd565b82800160010185558215611fcd579182015b82811115611fcc578251825591602001919060010190611fb1565b5b509050611fda9190611fde565b5090565b5b80821115611ff7576000816000905550600101611fdf565b5090565b6000604051905090565b600080fd5b600080fd5b600073ffffffffffffffffffffffffffffffffffffffff82169050919050565b600061203a8261200f565b9050919050565b61204a8161202f565b811461205557600080fd5b50565b60008135905061206781612041565b92915050565b6000819050919050565b6120808161206d565b811461208b57600080fd5b50565b60008135905061209d81612077565b92915050565b600080604083850312156120ba576120b9612005565b5b60006120c885828601612058565b92505060206120d98582860161208e565b9150509250929050565b6120ec8161206d565b82525050565b600060208201905061210760008301846120e3565b92915050565b60007fffffffff0000000000000000000000000000000000000000000000000000000082169050919050565b6121428161210d565b811461214d57600080fd5b50565b60008135905061215f81612139565b92915050565b60006020828403121561217b5761217a612005565b5b600061218984828501612150565b91505092915050565b60008115159050919050565b6121a781612192565b82525050565b60006020820190506121c2600083018461219e565b92915050565b6000602082840312156121de576121dd612005565b5b60006121ec8482850161208e565b91505092915050565b600081519050919050565b600082825260208201905092915050565b60005b8381101561222f578082015181840152602081019050612214565b8381111561223e576000848401525b50505050565b6000601f19601f8301169050919050565b6000612260826121f5565b61226a8185612200565b935061227a818560208601612211565b61228381612244565b840191505092915050565b600060208201905081810360008301526122a88184612255565b905092915050565b600080fd5b600080fd5b7f4e487b7100000000000000000000000000000000000000000000000000000000600052604160045260246000fd5b6122f282612244565b810181811067ffffffffffffffff82111715612311576123106122ba565b5b80604052505050565b6000612324611ffb565b905061233082826122e9565b919050565b600067ffffffffffffffff8211156123505761234f6122ba565b5b61235982612244565b9050602081019050919050565b82818337600083830152505050565b600061238861238384612335565b61231a565b9050828152602081018484840111156123a4576123a36122b5565b5b6123af848285612366565b509392505050565b600082601f8301126123cc576123cb6122b0565b5b81356123dc848260208601612375565b91505092915050565b600080600080608085870312156123ff576123fe612005565b5b600061240d8782880161208e565b945050602085013567ffffffffffffffff81111561242e5761242d61200a565b5b61243a878288016123b7565b935050604085013567ffffffffffffffff81111561245b5761245a61200a565b5b612467878288016123b7565b925050606085013567ffffffffffffffff8111156124885761248761200a565b5b612494878288016123b7565b91505092959194509250565b6000806000606084860312156124b9576124b8612005565b5b60006124c786828701612058565b93505060206124d88682870161208e565b92505060406124e98682870161208e565b9150509250925092565b600067ffffffffffffffff82111561250e5761250d6122ba565b5b602082029050602081019050919050565b600080fd5b6000612537612532846124f3565b61231a565b9050808382526020820190506020840283018581111561255a5761255961251f565b5b835b81811015612583578061256f888261208e565b84526020840193505060208101905061255c565b5050509392505050565b600082601f8301126125a2576125a16122b0565b5b81356125b2848260208601612524565b91505092915050565b600067ffffffffffffffff8211156125d6576125d56122ba565b5b6125df82612244565b9050602081019050919050565b60006125ff6125fa846125bb565b61231a565b90508281526020810184848401111561261b5761261a6122b5565b5b612626848285612366565b509392505050565b600082601f830112612643576126426122b0565b5b81356126538482602086016125ec565b91505092915050565b600080600080600060a0868803121561267857612677612005565b5b600061268688828901612058565b955050602061269788828901612058565b945050604086013567ffffffffffffffff8111156126b8576126b761200a565b5b6126c48882890161258d565b935050606086013567ffffffffffffffff8111156126e5576126e461200a565b5b6126f18882890161258d565b925050608086013567ffffffffffffffff8111156127125761271161200a565b5b61271e8882890161262e565b9150509295509295909350565b600067ffffffffffffffff821115612746576127456122ba565b5b602082029050602081019050919050565b600061276a6127658461272b565b61231a565b9050808382526020820190506020840283018581111561278d5761278c61251f565b5b835b818110156127b657806127a28882612058565b84526020840193505060208101905061278f565b5050509392505050565b600082601f8301126127d5576127d46122b0565b5b81356127e5848260208601612757565b91505092915050565b6000806040838503121561280557612804612005565b5b600083013567ffffffffffffffff8111156128235761282261200a565b5b61282f858286016127c0565b925050602083013567ffffffffffffffff8111156128505761284f61200a565b5b61285c8582860161258d565b9150509250929050565b600081519050919050565b600082825260208201905092915050565b6000819050602082019050919050565b61289b8161206d565b82525050565b60006128ad8383612892565b60208301905092915050565b6000602082019050919050565b60006128d182612866565b6128db8185612871565b93506128e683612882565b8060005b838110156129175781516128fe88826128a1565b9750612909836128b9565b9250506001810190506128ea565b5085935050505092915050565b6000602082019050818103600083015261293e81846128c6565b905092915050565b61294f8161202f565b82525050565b600060208201905061296a6000830184612946565b92915050565b61297981612192565b811461298457600080fd5b50565b60008135905061299681612970565b92915050565b600080604083850312156129b3576129b2612005565b5b60006129c185828601612058565b92505060206129d285828601612987565b9150509250929050565b600080604083850312156129f3576129f2612005565b5b6000612a0185828601612058565b9250506020612a1285828601612058565b9150509250929050565b600080600080600060a08688031215612a3857612a37612005565b5b6000612a4688828901612058565b9550506020612a5788828901612058565b9450506040612a688882890161208e565b9350506060612a798882890161208e565b925050608086013567ffffffffffffffff811115612a9a57612a9961200a565b5b612aa68882890161262e565b9150509295509295909350565b600060208284031215612ac957612ac8612005565b5b6000612ad784828501612058565b91505092915050565b7f455243313135353a2061646472657373207a65726f206973206e6f742061207660008201527f616c6964206f776e657200000000000000000000000000000000000000000000602082015250565b6000612b3c602a83612200565b9150612b4782612ae0565b604082019050919050565b60006020820190508181036000830152612b6b81612b2f565b9050919050565b7f4e487b7100000000000000000000000000000000000000000000000000000000600052602260045260246000fd5b60006002820490506001821680612bb957607f821691505b602082108103612bcc57612bcb612b72565b5b50919050565b7f455243313135353a2063616c6c6572206973206e6f7420746f6b656e206f776e60008201527f6572206f7220617070726f766564000000000000000000000000000000000000602082015250565b6000612c2e602e83612200565b9150612c3982612bd2565b604082019050919050565b60006020820190508181036000830152612c5d81612c21565b9050919050565b7f455243313135353a206163636f756e747320616e6420696473206c656e67746860008201527f206d69736d617463680000000000000000000000000000000000000000000000602082015250565b6000612cc0602983612200565b9150612ccb82612c64565b604082019050919050565b60006020820190508181036000830152612cef81612cb3565b9050919050565b7f4e487b7100000000000000000000000000000000000000000000000000000000600052603260045260246000fd5b7f4e487b7100000000000000000000000000000000000000000000000000000000600052601160045260246000fd5b6000612d5f8261206d565b91507fffffffffffffffffffffffffffffffffffffffffffffffffffffffffffffffff8203612d9157612d90612d25565b5b600182019050919050565b7f4f6e6c7920746f6b656e206f776e65722063616e207472616e73666572206f7760008201527f6e65727368697000000000000000000000000000000000000000000000000000602082015250565b6000612df8602783612200565b9150612e0382612d9c565b604082019050919050565b60006020820190508181036000830152612e2781612deb565b9050919050565b7f4f776e61626c653a206e6577206f776e657220697320746865207a65726f206160008201527f6464726573730000000000000000000000000000000000000000000000000000602082015250565b6000612e8a602683612200565b9150612e9582612e2e565b604082019050919050565b60006020820190508181036000830152612eb981612e7d565b9050919050565b7f63616c6c6572206973206e6f74206f776e6572206e6f7220617070726f766564600082015250565b6000612ef6602083612200565b9150612f0182612ec0565b602082019050919050565b60006020820190508181036000830152612f2581612ee9565b9050919050565b7f4f776e61626c653a2063616c6c6572206973206e6f7420746865206f776e6572600082015250565b6000612f62602083612200565b9150612f6d82612f2c565b602082019050919050565b60006020820190508181036000830152612f9181612f55565b9050919050565b7f455243313135353a206d696e7420746f20746865207a65726f2061646472657360008201527f7300000000000000000000000000000000000000000000000000000000000000602082015250565b6000612ff4602183612200565b9150612fff82612f98565b604082019050919050565b6000602082019050818103600083015261302381612fe7565b9050919050565b60006130358261206d565b91506130408361206d565b9250827fffffffffffffffffffffffffffffffffffffffffffffffffffffffffffffffff0382111561307557613074612d25565b5b828201905092915050565b600060408201905061309560008301856120e3565b6130a260208301846120e3565b9392505050565b7f455243313135353a2069647320616e6420616d6f756e7473206c656e6774682060008201527f6d69736d61746368000000000000000000000000000000000000000000000000602082015250565b6000613105602883612200565b9150613110826130a9565b604082019050919050565b60006020820190508181036000830152613134816130f8565b9050919050565b7f455243313135353a207472616e7366657220746f20746865207a65726f20616460008201527f6472657373000000000000000000000000000000000000000000000000000000602082015250565b6000613197602583612200565b91506131a28261313b565b604082019050919050565b600060208201905081810360008301526131c68161318a565b9050919050565b7f455243313135353a20696e73756666696369656e742062616c616e636520666f60008201527f72207472616e7366657200000000000000000000000000000000000000000000602082015250565b6000613229602a83612200565b9150613234826131cd565b604082019050919050565b600060208201905081810360008301526132588161321c565b9050919050565b6000604082019050818103600083015261327981856128c6565b9050818103602083015261328d81846128c6565b90509392505050565b7f455243313135353a2073657474696e6720617070726f76616c2073746174757360008201527f20666f722073656c660000000000000000000000000000000000000000000000602082015250565b60006132f2602983612200565b91506132fd82613296565b604082019050919050565b60006020820190508181036000830152613321816132e5565b9050919050565b7f455243313135353a206275726e2066726f6d20746865207a65726f206164647260008201527f6573730000000000000000000000000000000000000000000000000000000000602082015250565b6000613384602383612200565b915061338f82613328565b604082019050919050565b600060208201905081810360008301526133b381613377565b9050919050565b7f455243313135353a206275726e20616d6f756e7420657863656564732062616c60008201527f616e636500000000000000000000000000000000000000000000000000000000602082015250565b6000613416602483612200565b9150613421826133ba565b604082019050919050565b6000602082019050818103600083015261344581613409565b9050919050565b600081519050919050565b600082825260208201905092915050565b60006134738261344c565b61347d8185613457565b935061348d818560208601612211565b61349681612244565b840191505092915050565b600060a0820190506134b66000830188612946565b6134c36020830187612946565b6134d060408301866120e3565b6134dd60608301856120e3565b81810360808301526134ef8184613468565b90509695505050505050565b60008151905061350a81612139565b92915050565b60006020828403121561352657613525612005565b5b6000613534848285016134fb565b91505092915050565b60008160e01c9050919050565b600060033d11156135695760046000803e61356660005161353d565b90505b90565b600060443d106135f95761357e611ffb565b60043d036004823e80513d602482011167ffffffffffffffff821117156135a65750506135f9565b808201805167ffffffffffffffff8111156135c457505050506135f9565b80602083010160043d0385018111156135e15750505050506135f9565b6135f0826020018501866122e9565b82955050505050505b90565b7f455243313135353a207472616e7366657220746f206e6f6e2d4552433131353560008201527f526563656976657220696d706c656d656e746572000000000000000000000000602082015250565b6000613658603483612200565b9150613663826135fc565b604082019050919050565b600060208201905081810360008301526136878161364b565b9050919050565b7f455243313135353a204552433131353552656365697665722072656a6563746560008201527f6420746f6b656e73000000000000000000000000000000000000000000000000602082015250565b60006136ea602883612200565b91506136f58261368e565b604082019050919050565b60006020820190508181036000830152613719816136dd565b9050919050565b600060a0820190506137356000830188612946565b6137426020830187612946565b818103604083015261375481866128c6565b9050818103606083015261376881856128c6565b9050818103608083015261377c8184613468565b9050969550505050505056fea264697066735822122061ea0559d7b0dfd09424e2b32a6b60dcc038603a8e170127c436871e36e3070c64736f6c634300080d0033",
  "immutableReferences": {},
  "source": "// SPDX-License-Identifier: MIT\npragma solidity ^0.8.0;\n\n\nimport \"@openzeppelin/contracts/token/ERC1155/ERC1155.sol\";\nimport \"@openzeppelin/contracts/token/ERC1155/extensions/ERC1155Burnable.sol\";\nimport \"@openzeppelin/contracts/access/Ownable.sol\";\ncontract HelloBlockchain is ERC1155, Ownable {\n\n    uint[] private idList;\n    mapping(uint256 => address) private _tokenOwners;\n    mapping(uint256 => string) private _tokenURIs;\n    mapping(uint256 => string) private _names;\n    mapping(uint256 => string) private _descriptions;\n    mapping(uint256 => int) private _amounts;\n\n    constructor() ERC1155(\"\") {\n    }\n\n    function transferNFT(address _to, uint id) external {\n        require(msg.sender == _tokenOwners[id], \"Only token owner can transfer ownership\");\n        _tokenOwners[id] = _to;\n    }\n    \n    function getOwner(uint id) public view returns (address) {\n        return _tokenOwners[id];\n    }\n\n    function createNFT(uint256 id, string memory name, string memory description, string memory uri) external onlyOwner {\n        idList.push(id);\n        _names[id] = name;\n        _descriptions[id] = description;\n        _tokenOwners[id] = msg.sender;\n        _mint(msg.sender, id, 1, \"\");\n        _setTokenURI(id, uri);\n    }\n\n    function getName(uint256 id) public view returns(string memory) {\n        return _names[id];\n    }\n\n    function getDescription(uint256 id) public view returns(string memory) {\n        return _descriptions[id];\n    }\n\n    function mint(address to, uint256 id, uint256 amount) external onlyOwner {\n        _mint(to, id, amount, \"\");\n    }\n\n    function burn(address from, uint256 id, uint256 amount) external {\n        require(from == msg.sender || isApprovedForAll(from, msg.sender), \"caller is not owner nor approved\");\n        _burn(from, id, amount);\n    }\n\n    function _setTokenURI(uint256 tokenId, string memory uri) internal virtual {\n        _tokenURIs[tokenId] = uri;\n        _setURI(uri);\n    }\n\n}\n",
  "sourcePath": "C:\\Users\\10793\\Desktop\\Spring 2023\\ELEN6883\\project\\SampleProject\\contracts\\HelloBlockchain.sol",
  "compiler": {
    "name": "solc",
    "version": "0.8.13+commit.abaa5c0e.Emscripten.clang"
  },
  "schemaVersion": "3.4.13",
  "updatedAt": "2023-05-08T16:54:55.857Z",
  "devdoc": {
    "kind": "dev",
    "methods": {
      "balanceOf(address,uint256)": {
        "details": "See {IERC1155-balanceOf}. Requirements: - `account` cannot be the zero address."
      },
      "balanceOfBatch(address[],uint256[])": {
        "details": "See {IERC1155-balanceOfBatch}. Requirements: - `accounts` and `ids` must have the same length."
      },
      "isApprovedForAll(address,address)": {
        "details": "See {IERC1155-isApprovedForAll}."
      },
      "owner()": {
        "details": "Returns the address of the current owner."
      },
      "renounceOwnership()": {
        "details": "Leaves the contract without owner. It will not be possible to call `onlyOwner` functions anymore. Can only be called by the current owner. NOTE: Renouncing ownership will leave the contract without an owner, thereby removing any functionality that is only available to the owner."
      },
      "safeBatchTransferFrom(address,address,uint256[],uint256[],bytes)": {
        "details": "See {IERC1155-safeBatchTransferFrom}."
      },
      "safeTransferFrom(address,address,uint256,uint256,bytes)": {
        "details": "See {IERC1155-safeTransferFrom}."
      },
      "setApprovalForAll(address,bool)": {
        "details": "See {IERC1155-setApprovalForAll}."
      },
      "supportsInterface(bytes4)": {
        "details": "See {IERC165-supportsInterface}."
      },
      "transferOwnership(address)": {
        "details": "Transfers ownership of the contract to a new account (`newOwner`). Can only be called by the current owner."
      },
      "uri(uint256)": {
        "details": "See {IERC1155MetadataURI-uri}. This implementation returns the same URI for *all* token types. It relies on the token type ID substitution mechanism https://eips.ethereum.org/EIPS/eip-1155#metadata[defined in the EIP]. Clients calling this function must replace the `\\{id\\}` substring with the actual token type ID."
      }
    },
    "version": 1
  },
  "userdoc": {
    "kind": "user",
    "methods": {},
    "version": 1
  }
}